S01500004269566F5F454D463332474731322E733337E2
S214000000001000204D1A0000951A0000951A0000F6
S214000010951A0000951A0000951A0000951A00001F
S214000020951A0000951A0000951A0000951A00000F
S214000030951A0000951A0000951A0000951A0000FF
S214000040951A0000951A0000951A0000951A0000EF
S214000050951A0000951A0000951A0000951A0000DF
S214000060951A0000951A0000951A0000951A0000CF
S214000070951A0000951A0000951A0000951A0000BF
S214000080951A0000951A0000951A0000951A0000AF
S214000090951A0000951A0000951A0000951A00009F
S2140000A0951A0000951A0000951A0000951A00008F
S2140000B0951A0000951A0000951A0000951A00007F
S2140000C0951A0000951A0000951A0000951A00006F
S2140000D0951A0000951A0000951A0000951A00005F
S2140000E0951A0000951A0000951A0000951A00004F
S2140000F0951A0000951A0000951A0000951A00003F
S214000100951A0000951A0000951A0000951A00002E
S214000110951A0000951A0000951A0000951A00001E
S214000120951A0000951A0000951A0000212200007A
S21400013010B5054C237833B9044B13B10448AFF31C
S21400014000800123237010BDC410002000000000B2
S2140001509C6F010008B5034B1BB103490348AFF37E
S214000160008008BD00000000C81000209C6F010041
S214000170154B002B08BF134B9D46A3F5803A002174
S2140001808B460F461348144A121A01F069FE0F4BAD
S214000190002B00D098470E4B002B00D0984700202D
S2140001A0002104000D000D48002802D00C48AFF3D3
S2140001B0008001F031FE2000290001F010FE01F061
S2140001C017FE00BF0000080000100020000000001E
S2140001D000000000C41000200011002000000000F5
S2140001E00000000082B001900091FEE700B583B0E9
S2140001F00190019B1F2B04D940F225110548FFF7FB
S214000200F1FF0122019B02FA03F3184603B05DF8E2
S21400021004FB00BFC84E000086B003900291019216
S214000220039B03F10473DA00029B13449B000593BF
S214000230059B019A1A6000BF06B0704782B0034B58
S2140002401B680193019B184602B0704700100020FF
S21400025000B583B001F020FC0190074BD3F80031C5
S2140002601B0A03F01F030133019A02FB03F318462F
S21400027003B05DF804FB00BF00400E4000B583B03D
S214000280104800F085FE03468DF803309DF80330D5
S214000290072B05D0092B07D101F0FEFB01900BE0E0
S2140002A0FFF7CCFF019007E00023019341F2EC0139
S2140002B00548FFF797FF00BF019B184603B05DF89F
S2140002C004FB00BF06000E00A84F000000B585B076
S2140002D00190019B002B02D0012B07D00DE0244893
S2140002E000F056FE03468DF80B300DE0214800F076
S2140002F04FFE03468DF80B3006E041F20C111E4807
S214000300FFF770FF00232FE09DF80B30013B072B13
S21400031021D801A252F823F0390300005703000049
S2140003205703000047030000570300005703000070
S2140003303F0300004F0300000023039313E0FFF782
S2140003407DFF03900FE001F01BFC03900BE0FFF72E
S2140003507FFF039007E00023039341F22311064832
S214000360FFF740FF00BF039B184605B05DF804FB8F
S214000370B8003200B9003400A84F000000B583B0C2
S2140003801C4800F005FE03468DF803309DF8033048
S214000390043B062B20D801A252F823F0C10300002C
S2140003A0B9030000D9030000C9030000D903000008
S2140003B0D9030000D10300000F4B1B68019313E024
S2140003C001F0DEFB01900FE0FFF738FF01900BE035
S2140003D00A4B1B68019307E00023019341F24D117D
S2140003E00748FFF7FFFE00BF019B184603B05DF805
S2140003F004FB00BF0A7B3600141000200410002007
S214000400A84F000000B585B00190019B002B1DD1C0
S214000410204800F0BDFD03468DF80B3000BF9DF868
S2140004200B30043B062B28D801A252F823F000BF5D
S214000430630400005B0400007B0400006B04000003
S2140004407B0400007B0400007304000041F2681186
S2140004501148FFF7C7FE002318E0104B1B680393F4
S21400046013E001F08DFB03900FE0FFF7E7FE03902B
S2140004700BE00B4B1B68039307E00023039341F24A
S2140004807F110548FFF7AEFE00BF039B184605B078
S2140004905DF804FB0B7C3800A84F00001410002009
S2140004A00410002000B583B0134800F071FD034629
S2140004B08DF803309DF80330052B04D00A2B0AD0A4
S2140004C0042B04D00BE00D4B1B6801930FE001F0EA
S2140004D057FB01900BE00A4B1B68019307E00023D3
S2140004E0019341F2A5110748FFF77CFE00BF019B70
S2140004F0184603B05DF804FB0D743C001410002091
S21400050004100020A84F000000B583B0244800F077
S2140005103FFD03468DF803309DF80330023B092B60
S21400052030D801A252F823F0750500007D050000C2
S214000530590500006D0500008505000085050000D2
S21400054085050000850500005105000061050000D6
S214000550144B1B6801931DE001F012FB019019E09B
S21400056001F00EFB03465B00019313E00E4B1B6885
S21400057001930FE001F024FB01900BE001F018FB63
S214000580019007E00023019341F2D6110748FFF7D8
S21400059029FE00BF019B184603B05DF804FB00BFB0
S2140005A00C7F3A000410002014100020A84F000012
S2140005B010B584B0019000230293019B464A9342F3
S2140005C012D0454A934203D8444A93420CD005E0E1
S2140005D0434A934208D0434A934205D041F22A3117
S2140005E04148FFF7FFFD00E000BF019800F0D0FC97
S2140005F003460393019B384A934214D0364A9342EB
S21400060003D8364A934207D022E0354A934211D0A7
S214000610344A934215D01BE0344BD3F8803003F0B5
S214000620070303931AE0314BD3F8843003F0070333
S214000630039313E02D4BD3F88C3003F0070303939A
S2140006400CE02A4BD3F8883003F00703039305E049
S21400065041F259312448FFF7C5FD00BF039B042B28
S2140006602DD801A252F823F0B90600007D0600003E
S21400067085060000950600008D06000001F098FA39
S214000680029024E001F09CFA029020E001F094FA37
S21400069002901CE001F000FA0446144BD3F8003137
S2140006A01B0E03F0030301331846FFF79FFD0346B6
S2140006B0B4FBF3F302930AE00023029307E000235F
S2140006C0029341F2AB310848FFF78CFD00BF029B56
S2140006D0184604B010BD00BF0300200002001E0034
S2140006E00400220005002400A84F000000400E4031
S2140006F082B00190094BD3F8443103F00103002B7C
S21400070008D100BF054BD3F84021019B1340002BB6
S214000710F8D100E000BF02B0704700BF00400E40B6
S21400072000B583B00190019800F0C0FA034601338B
S214000730184603B05DF804FB00B587B001900B4681
S2140007408DF8033000230493019B1B0A03F00F036C
S214000750013B0E2B75D801A252F823F09907000032
S214000760A507000043080000370800009F070000A8
S214000770B1070000BB070000C5070000D107000056
S2140007803D080000DD0700000708000043080000E1
S214000790AB07000031080000374B059357E0374B96
S2140007A0059354E0364B059351E0364B05934EE0E7
S2140007B0354B05930123049349E0344B05931023EE
S2140007C0049344E0324B05934FF4807304933EE069
S2140007D0304B05934FF48033049338E02E4B05934B
S2140007E09DF80330002B14BF01230023DBB283F0F7
S2140007F00103DBB28DF803309DF8033003F00103EC
S2140008008DF8033023E0254B05939DF80330002B2D
S21400081014BF01230023DBB283F00103DBB28DF8A3
S21400082003309DF8033003F001038DF803300EE02B
S2140008301B4B05930BE01B4B059308E01A4B0593E7
S21400084005E041F2C7711948FFF7CCFC11E0019BA7
S2140008501B0B03F01F030393049B002B02D004988A
S214000860FFF746FF9DF803301A4603990598FFF7F1
S214000870D3FC07B05DF804FB00400E40B0400E40CD
S214000880C0400E40C4400E40E0400E40E8400E40DF
S214000890EC400E40F0400E4060410E4064410E4079
S2140008A0F0410E4068410E4050410E40A84F0000F7
S2140008B010B584B00190019B03F47813B3F5E01FE4
S2140008C000F06781B3F5E01F40D8B3F5402F00F085
S2140008D0D180B3F5402F18D8B3F5802F7FD0B3F56D
S2140008E0802F06D8002B76D0B3F5003F00F0B380FB
S2140008F0C3E1B3F5002F00F09080B3F5202F00F091
S2140009009B80B3F5C02F79D0B7E1B3F5A01F00F0F8
S214000910D480B3F5A01F0CD8B3F5801F00F06E810D
S214000920B3F5901F00F0BA80B3F5602F00F0628137
S214000930A3E1B3F5C01F00F0E080B3F5D01F00F0D0
S2140009401681B3F5B01F00F0C68096E1B3F5401FE0
S21400095000F03281B3F5401F1CD8B3F5101F00F02D
S2140009604481B3F5101F08D8B3F5F01F00F091804E
S214000970B3F5001F00F0F6807FE1B3F5281F00F006
S214000980CF80B3F5381F00F0DE80B3F5201F00F0EF
S214000990278172E1B3F5601F00F05781B3F5601F41
S2140009A00CD8B3F5501F00F03C81B3F5581F00F08B
S2140009B04881B3F5481F00F025815EE1B3F5701F4E
S2140009C000F04C81B3F5781F00F04C81B3F5681F3A
S2140009D000F0408151E101F05FF8039055E101F02D
S2140009E05BF80390AB4BD3F80C311B0AC3F3080338
S2140009F00133039AB2FBF3F3039346E101F04CF89C
S214000A000390A44BD3F818311B0AC3F30803013331
S214000A10039AB2FBF3F3039337E101F03DF803903A
S214000A209C4BD3F81C311B0AC3F308030133039A0B
S214000A30B2FBF3F3039328E101F02EF80390954BF5
S214000A40D3F804311B0AC3F308030133039AB2FB3D
S214000A50F3F3039319E101F01FF803908D4BD3F8DD
S214000A6008311B0AC3F308030133039AB2FBF3F3FE
S214000A7003930AE101F010F80390864BD3F8143183
S214000A801B0A03F01F030133039AB2FBF3F303932D
S214000A90FBE08148FFF78CFD0390F6E07E48FFF709
S214000AA087FD03907B4BD3F820311B0C03F00F031C
S214000AB0039A22FA03F30393E7E07848FFF778FDFA
S214000AC00390744BD3F8303103F00303039A22FAF1
S214000AD003F30393D9E07048FFF76AFD03906D4B6C
S214000AE0D3F8203103F00F031846FFF77FFB0246CA
S214000AF0039BB3FBF2F30393C7E06748FFF758FD89
S214000B000390644BD3F820311B0903F00F031846FB
S214000B10FFF76CFB0246039BB3FBF2F30393B4E0D0
S214000B205D48FFF745FD03905A4BD3F820311B0B69
S214000B3003F007031846FFF759FB0246039BB3FB77
S214000B40F2F30393A1E05448FFF732FD0390514BB4
S214000B50D3F820311B0A03F00303039A22FA03F3A7
S214000B60039392E04E48FFF723FD03908DE04C4838
S214000B70FFF71EFD0390474BD3F8283103F003031D
S214000B801846FFF733FB0246039BB3FBF2F30393CF
S214000B907BE04348FFF70CFD03903E4BD3F828312B
S214000BA01B0903F003031846FFF720FB0246039BCE
S214000BB0B3FBF2F3039368E03948FFF7F9FC0390C0
S214000BC0344BD3F828311B0B03F0030304331846C9
S214000BD0FFF70CFB0246039BB3FBF2F3039354E0D0
S214000BE03048FFF7E5FC03904FE02C48FFF7E0FCA9
S214000BF003904AE0FFF742FB039046E0FFF71EFB38
S214000C00039042E00020FFF761FB0390214BD3F8EE
S214000C105C3103F003030133039AB2FBF3F303934F
S214000C2033E00120FFF752FB03901A4BD3F85C31F8
S214000C301B0C03F003030133039AB2FBF3F3039395
S214000C4023E0FFF79BFB03901FE00020FFF7DAFB93
S214000C5003901AE0FFF758FC039016E0FFF722FC1B
S214000C60039012E000F018FF04460198FFF758FDC5
S214000C700346B4FBF3F3039307E00023039341F624
S214000C80F7010948FFF7AEFA00BF039B184604B009
S214000C9010BD00BF00400E4002001E0005002400EC
S214000CA00300200004002200A84F000000B585B015
S214000CB00190019B1B0903F00F030293029B013B6B
S214000CC00B2B00F23B8101A252F823F0FD0C000032
S214000CD00D0D00001D0D00003D0D00004D0D000027
S214000CE05D0D00006D0D00007D0D0000490E00003A
S214000CF0C50E0000ED0E00002D0F0000964BD3F839
S214000D0000311B0A03F01F0303931FE1924BD3F835
S214000D1014311B0A03F01F03039317E18E4BD3F81D
S214000D2000311B0E03F003030393039B01331846A5
S214000D30FFF75CFA0346013B039307E1864BD3F8C3
S214000D400C311B0AC3F308030393FFE0824BD3F86E
S214000D5018311B0AC3F308030393F7E07E4BD3F85E
S214000D601C311B0AC3F308030393EFE07A4BD3F856
S214000D7008311B0AC3F308030393E7E0019B774A95
S214000D8093422ED0754A934206D8754A934244D071
S214000D90744A93420AD04EE0734A93422FD0734A65
S214000DA0934210D0724A934229D044E06A4BD3F85B
S214000DB0203103F00F0303930398FFF717FA034657
S214000DC0013B03933FE0644BD3F820311B0A03F04A
S214000DD0030303930398FFF709FA0346013B0393C3
S214000DE031E05D4BD3F820311B0903F00F0303936A
S214000DF00398FFF7FBF90346013B039323E0564BAA
S214000E00D3F820311B0B03F0070303930398FFF777
S214000E10EDF90346013B039315E04F4BD3F8203121
S214000E201B0C03F00F0303930398FFF7DFF9034649
S214000E30013B039307E00023039341F66B114D48F3
S214000E40FFF7D0F900BF81E0019B4B4A934212D0D6
S214000E504A4A93421DD04A4A93422AD13E4BD3F87F
S214000E60283103F0030303930398FFF7BFF9034603
S214000E70013B039325E0384BD3F828311B0903F0D8
S214000E80030303930398FFF7B1F90346013B03936B
S214000E9017E0314BD3F828311B0B03F00303039301
S214000EA0039B04331846FFF7A1F90346013B03935F
S214000EB007E00023039341F68F112E48FFF792F9BF
S214000EC000BF43E0019B2F4A934206D1224BD3F842
S214000ED0303103F00303039307E00023039341F646
S214000EE09E112448FFF77EF900BF2FE0019B264A9B
S214000EF0934203D0254A934207D00EE0164BD3F810
S214000F005C3103F0030303930FE0134BD3F85C311B
S214000F101B0C03F00303039307E00023039341F63F
S214000F20B6111448FFF75EF900BF0FE00A4BD3F87E
S214000F3004311B0AC3F30803039307E0002303935B
S214000F4041F6C3110B48FFF74DF900BF039B184647
S214000F5005B05DF804FB00BF00400E408016180088
S214000F60804612008006160000362C0080262E00D2
S214000F7080002A00A84F000090171C009037300011
S214000F8090071A00A0091400B8003200B900340017
S214000F9000B585B0019001238DF80F30019B03F05A
S214000FA00F030293029B013B0C2B00F2C48101A2AB
S214000FB052F823F0E90F0000531000008B100000D9
S214000FC013110000DB1000004B1100003713000067
S214000FD075110000C11100000D120000571200002C
S214000FE09F12000005130000C54BD3F8943003F0A1
S214000FF00703023B052B27D801A252F823F000BFB7
S2140010002910000021100000191000003110000007
S214001010411000003910000002238DF80F3017E051
S21400102003238DF80F3013E004238DF80F300FE004
S2140010300D238DF80F300BE00E238DF80F3007E0F0
S2140010400A238DF80F3003E005238DF80F3000BF1C
S2140010507FE1AB4BD3F8803003F00703022B07D0B9
S214001060042B09D0012B0BD103238DF80F300BE096
S21400107002238DF80F3007E00C238DF80F3003E0C5
S21400108001238DF80F3000BF63E19D4BD3F8843009
S21400109003F00703013B032B1AD801A252F823F0F2
S2140010A0B1100000B9100000C9100000C110000007
S2140010B003238DF80F300FE002238DF80F300BE07E
S2140010C00C238DF80F3007E006238DF80F3003E071
S2140010D001238DF80F3000BF3BE1894BD3F88830F1
S2140010E003F00703022B07D0042B09D0012B0BD1EA
S2140010F003238DF80F300BE002238DF80F3007E046
S2140011000C238DF80F3003E001238DF80F3000BF5D
S2140011101FE17B4BD3F88C3003F00703022B07D07C
S214001120042B09D0012B0BD103238DF80F300BE0D5
S21400113002238DF80F3007E00C238DF80F3003E004
S21400114001238DF80F3000BF03E16D4B1B6F03F0DA
S2140011500303002B05D0012B07D109238DF80F3090
S21400116007E007238DF80F3003E001238DF80F30DA
S21400117000BFEEE0624BD3F85C3103F03003102B77
S2140011800DD0102B02D8002B05D014E0202B0AD04F
S214001190302B0CD00FE001238DF80F300FE0072323
S2140011A08DF80F300BE004238DF80F3007E008238E
S2140011B08DF80F3003E001238DF80F3000BFC8E034
S2140011C04F4BD3F85C3103F44013B3F5801F10D0B7
S2140011D0B3F5801F02D8002B07D0BAE0B3F5001F86
S2140011E00BD0B3F5401F0CD0B3E001238DF80F30C1
S2140011F00BE007238DF80F3007E004238DF80F303F
S21400120003E008238DF80F3000BFA2E03C4BD3F874
S214001210603103F00303032B00F2968001A252F81C
S21400122023F000BF351200003D12000045120000FA
S2140012304D12000005238DF80F300BE004238DF8C7
S2140012400F3007E007238DF80F3003E00A238DF8F0
S2140012500F3000BF78E02A4BD3F8643103F0030365
S214001260032B73D801A252F823F000BF7D120000B2
S214001270851200008D1200009512000005238DF8DF
S2140012800F300BE004238DF80F3007E007238DF8AE
S2140012900F3003E00A238DF80F3000BF56E0184BDE
S2140012A0D3F8F03103F00703052B51D801A252F80A
S2140012B023F000BFCD120000D5120000DD120000A2
S2140012C0E5120000ED120000F51200000A238DF86A
S2140012D00F3013E004238DF80F300FE00B238DF84A
S2140012E00F300BE005238DF80F3007E002238DF852
S2140012F00F3003E003238DF80F3000BF28E000BF57
S21400130000400E40164BD3F8683103F00303012B60
S21400131008D0012B0AD3022B00D01AE00A238DF83E
S2140013200F3007E004238DF80F3003E005238DF817
S2140013300F3000BF0DE000238DF80F3041F6175137
S2140013400848FEF74FFF04E000BF02E000BF00E0E1
S21400135000BF9DF80F30184605B05DF804FB00BFCF
S21400136000400E40A84F000084B001900091019B01
S21400137003F1C0630393039B009A1A6000BF04B096
S214001380704784B001900091019B03F18063039342
S214001390039B009A1A6000BF04B0704700B583B084
S2140013A0034600918DF807309DF80730002B24D0B7
S2140013B09DF80730012B1DD09DF80730022B16D064
S2140013C09DF80730032B0FD09DF80730042B08D06C
S2140013D09DF80730052B02D147F6FF730FE0002378
S2140013E00DE04FF6FF730AE04FF6FF7307E04FF687
S2140013F0FF7304E04FF6FF7301E04FF6FF73009AA9
S214001400134103F00103002B04D140F2E1310D48F3
S214001410FEF7E8FE9DF8072013465B0013441B0109
S2140014200C3303F1804303F508230121009A01FAE7
S21400143002F211461846FFF7A4FF00BF03B05DF89E
S21400144004FB00BFD84F000000B583B003460091F0
S2140014508DF807309DF80730002B24D09DF8073014
S214001460012B1DD09DF80730022B16D09DF80730B3
S214001470032B0FD09DF80730042B08D09DF80730BB
S214001480052B02D147F6FF730FE000230DE04FF661
S214001490FF730AE04FF6FF7307E04FF6FF7304E0B2
S2140014A04FF6FF7301E04FF6FF73009A134103F007
S2140014B00103002B04D14FF482610D48FEF792FE23
S2140014C09DF8072013465B0013441B010C3303F101
S2140014D0804303F508230121009A01FA02F211461F
S2140014E01846FFF741FF00BF03B05DF804FB00BFDE
S2140014F0D84F000000B585B00291019303468DF8E1
S2140015000F3013468DF80E309DF80F30002B24D088
S2140015109DF80F30012B1DD09DF80F30022B16D0F2
S2140015209DF80F30032B0FD09DF80F30042B08D0FA
S2140015309DF80F30052B02D147F6FF730FE000230E
S2140015400DE04FF6FF730AE04FF6FF7307E04FF625
S214001550FF7304E04FF6FF7301E04FF6FF73029A45
S214001560134103F00103002B04D140F21D113F4844
S214001570FEF738FE9DF80E30002B0FD0019B002B97
S21400158006D09DF80F3002991846FFF75DFF05E07C
S2140015909DF80F3002991846FFF700FF029B072BB5
S2140015A023D833499DF80F2013465B0013441B01D4
S2140015B00B4404331A68029B9B000F2101FA03F3C5
S2140015C0DB4313409DF80E10029A920001FA02F2D5
S2140015D0114627489DF80F20194313465B00134415
S2140015E01B0103440433196028E021499DF80F20AD
S2140015F013465B0013441B010B4408331A68029B16
S21400160003F18043083B9B000F2101FA03F3DB4301
S21400161002EA03019DF80E20029B03F18043083B7B
S2140016209B0002FA03F312489DF80F201943134655
S2140016305B0013441B010344083319609DF80E3009
S214001640002B0FD1019B002B06D09DF80F3002997E
S2140016501846FFF7F9FE05E09DF80F300299184688
S214001660FFF79CFE00BF05B05DF804FB4850000085
S2140016700080084082B001900B468DF803309DF83C
S214001680033063F07F03DBB21A46019B9A6500BF06
S21400169002B0704700B587B00390029101928DF8B2
S2140016A00330019B002B04D14FF4A1714A48FEF78A
S2140016B099FD029B002B0CD1039B484A934204D110
S2140016C04748FFF7F5F8029003E04648FFF7F0F8C2
S2140016D002909DF80330202B16D0202B02DC002B26
S2140016E005D03BE0402B1CD0602B2AD036E0029B76
S2140016F01B09019A9A4204D94FF4BA713648FEF78C
S21400170071FD102305932FE0029BDB08019A9A4295
S21400171004D940F279113048FEF764FD082305939A
S21400172022E0029B304AA2FB03239B08019A9A42BE
S21400173004D94FF4BF712848FEF754FD06230593DD
S21400174012E0029B9B08019A9A4204D940F2831148
S2140017502148FEF747FD0423059305E040F2891172
S2140017601D48FEF73FFD33E0029B5A01059B019999
S21400177001FB03F35B0813440493059B019A02FBE9
S21400178003F3049AB2FBF3F30493049B203B049305
S214001790049BDB000493049B144A934204D940F252
S2140017A09F110D48FEF71EFD049A104B134004933C
S2140017B0039B1B6823F06002039B1A60039B1A6856
S2140017C09DF803301A43039B1A60039B049A5A61E0
S2140017D007B05DF804FB00BF785000000008014029
S2140017E05041070040410500ABAAAAAAF8FF7F00B7
S2140017F000B583B001900091019B3C4A93421CD0F7
S214001800019B3B4A934218D0019B3A4A934214D01C
S214001810019B394A934210D0019B384A93420CD020
S214001820019B374A934208D0019B364A934204D024
S21400183040F2EF213448FEF7D5FC019800F066F838
S214001840009B9B7C002B05D0019B1B6843F08042CD
S214001850019B1A60009BDB7C002B05D0009B1B7D48
S21400186019460198FFF706FF009B5B7B1A46009B14
S2140018701B8A1343009AD2891A43019B5A60009B25
S2140018805968009B9A68009B1B7B0198FFF702FF34
S214001890009B5B7D002B05D0019B1B6843F48032C8
S2140018A0019B1A60009B9B7D1B0703F0E042009B98
S2140018B0DB7D1B0503F4E0031A43019B1A66019BBC
S2140018C05B6F23F03002019B5A67019B5B6F009AA7
S2140018D0127E1A43019B5A67009B1B781A46019B8F
S2140018E0DA6000BF03B05DF804FB00BF00000140F3
S2140018F00004014000080140000C014000100140B7
S21400190000400140004401407850000000B583B01C
S2140019100190019B354A93421CD0019B344A934266
S21400192018D0019B334A934214D0019B324A93420B
S21400193010D0019B314A93420CD0019B304A93420F
S21400194008D0019B2F4A934204D040F22B412E48E8
S214001950FEF748FC019B40F6AA62DA60019B002273
S2140019601A60019B41F205025A60019B00229A60B0
S214001970019B00225A61019B0022DA64019B234AE4
S2140019809A64019B00221A66019B00225A67019BFB
S21400199000229A67019B0022DA67019B134A934252
S2140019A00BD0019B124A934207D0019B114A9342E7
S2140019B003D0019B104A934202D1019B00221A6574
S2140019C0019B00229A65019B094A934207D0019B1E
S2140019D0094A934203D0019B084A934202D1019BD5
S2140019E00022DA6500BF03B05DF804FB000001408A
S2140019F00004014000080140000C014000100140B6
S214001A00004001400044014078500000F9FF01000A
S214001A1084B001900B4B1A68019B13440A4A934208
S214001A2002D94FF0FF3309E0064B1B680393054BC2
S214001A301A68019B1344034A1360039B184604B0BC
S214001A40704700BF081000200000032000B585B0D6
S214001A5000F09CF80C4B03930C4B02930B4B01933A
S214001A600B4B00930AE0039A131D0393029B191D68
S214001A70029112681A60019B04330193019A009B3D
S214001A809A42F0D3FEF774FBA46F0100001000200A
S214001A90C4100020FEE7000082B0314BD3F894302B
S214001AA003F00703023B042B49D801A252F823F0A7
S214001AB0D51A0000CD1A0000C51A0000351B00001C
S214001AC0DD1A0000274B1B6801933CE04FF40043EF
S214001AD0019338E0244B1B68019334E0204B9B684D
S214001AE01B0C03F01F03073B072B1FD801A252F85D
S214001AF023F000BF151B00002D1B00002D1B00004F
S214001B002D1B00001B1B00002D1B0000211B0000CE
S214001B10271B0000154B01930BE0154B019308E0C3
S214001B20144B019305E0144B019302E0002301934C
S214001B3000BF08E0114B1B685B08019303E00F4BE6
S214001B401B68019300BF064BD3F800311B0A03F055
S214001B501F030133019AB2FBF3F3184602B0704735
S214001B6000400E40101000200C1000200024F4004E
S214001B700048E801006CDC0280F0FA021410002035
S214001B80014B1B68184670470C100020064B074A8E
S214001B909A60054BD3F88830034A43F47003C2F8C2
S214001BA0883000BF704700BF00ED00E00000000076
S214001BB04FF40043184670474FF47A731846704740
S214001BC0014B1B68184670471010002008B500F03F
S214001BD09FF900BF08BD0000B0B584B000AF6B46EB
S214001BE01D460523FB60F868431EBB600346194686
S214001BF04FF000024FF000034FF00004D40044EA18
S214001C005174CB00034619464FF000024FF0000314
S214001C104FF00004D40044EA5174CB000346073367
S214001C20DB08DB00ADEB030D6B4600337B6005E0A5
S214001C307B68FA681146184600F0D2F97B68FA68A5
S214001C401946104800F06CF80346002BF0D1FB68EC
S214001C5019460D4800F096F905E07B68FA681146CB
S214001C60184600F0BDF97B68FA681946074800F088
S214001C7057F80346002BF0D1AD4600BF1037BD46DF
S214001C80B0BD00BF18100020201000202810002033
S214001C90B0B584B000AF6B461D460523FB60F86800
S214001CA0431EBB60034619464FF000024FF0000388
S214001CB04FF00004D40044EA5174CB0003461946A2
S214001CC04FF000024FF000034FF00004D40044EA47
S214001CD05174CB0003460733DB08DB00ADEB030D86
S214001CE06B4600337B600BE07B68FA68114618464B
S214001CF000F076F97B681946084800F0B9F83860B5
S214001D007B68FA681946054800F00AF80346002B77
S214001D10EAD1AD4600BF1037BD46B0BD301000203A
S214001D2086B003900291019200230593002304934A
S214001D300DE0049B039A13441B781946049B029AF1
S214001D4013441B78CB1A0593049B01330493049A1F
S214001D50019B9A42EDDB059B184606B070470000D3
S214001D604FF0804301225A64164BD3F8B030154A20
S214001D7043F00103C2F8B030124BD3F8E030114AFA
S214001D8043F00803C2F8E0300F4B1B680E4A43F4DA
S214001D90805313600B4BD3F8E0300A4A23F0080355
S214001DA0C2F8E030074BD3F8B030064A23F0010300
S214001DB0C2F8B030054B1B68044A43F4F84313607E
S214001DC000BF704700400E4034400540A4310E402E
S214001DD008B5FFF7C5FFFFF7F9FE00BF08BD08B559
S214001DE0FFF7F6FF00F0DAFB0023184608BD0000F8
S214001DF008B5074B044613B10021AFF30080054B2E
S214001E001868836A03B19847204600F03BF800BF85
S214001E1000000000AC50000070B50D4E0D4CA41B29
S214001E20A4100025A54209D10B4E0C4C03F040F837
S214001E30A41BA4100025A54205D170BD56F8253078
S214001E4098470135EEE756F8253098470135F2E712
S214001E50BC100020BC100020BC100020C0100020C9
S214001E6002440346934200D1704703F8011BF9E78A
S214001E7010F8012B11F8013B012A28BF9A42F7D02F
S214001E80D01A7047FEE700BF08B501210B48FEF7E1
S214001E9053FC0123042207210420FFF72BFB002319
S214001EA0012206210420FFF725FB012304220F212F
S214001EB00020FFF71FFB00BF08BD00BF00450A005B
S214001EC030B589B001210F48FEF736FC0E4B01AC49
S214001ED01D460FCD0FC495E8070084E8070001AB48
S214001EE019460A48FFF784FC084B40F201129A672D
S214001EF0064B5B6F054A43F00303536700BF09B008
S214001F0030BD00BF00020400B050000000000140D9
S214001F1008B5FFF7B9FFFFF7D3FF024B01221A708F
S214001F2000BF08BDE010002084B001900091134B64
S214001F301B7883F00103DBB2002B01D001231AE0EB
S214001F400023039312E000BF0D4B1B699B0903F0AF
S214001F500103002BF8D0039B5B00019A1344B3F9EE
S214001F600020074BDA63039B01330393039B009A1D
S214001F709A42E8D80023184604B07047E0100020C4
S214001F800000014084B001900091134B1B7883F051
S214001F900103DBB2002B01D0012319E000230393D9
S214001FA011E000BF0D4B1B699B0903F00103002BDA
S214001FB0F8D0039B019A134493F90020074B5A6309
S214001FC0039B01330393039B009A9A42E9D80023AC
S214001FD0184604B0704700BFE01000200000014023
S214001FE084B001900091134B1B7883F00103DBB2A1
S214001FF0002B01D0012319E00023039311E000BF5A
S2140020000D4B1B69DB0903F00103002BF8D00A4BCC
S214002010D969039B019A13444AB21A70039B013391
S2140020200393039B009A9A42E9D80023184604B00B
S214002030704700BFE01000200000014082B0034659
S2140020408DF807309DF90730002B0CDB9DF8073024
S21400205003F01F0205499DF907305B09012000FACD
S21400206002F241F8232000BF02B0704700E100E012
S21400207082B003468DF807309DF90730002B0DDB44
S2140020809DF8073003F01F0206499DF907305B09EB
S214002090012000FA02F2603341F8232000BF02B0AC
S2140020A0704700BF00E100E084B001900091019B02
S2140020B003F1C0630393039B009A1A6000BF04B049
S2140020C07047000000B583B0034600918DF80730D6
S2140020D09DF80730002B24D09DF80730012B1DD02B
S2140020E09DF80730022B16D09DF80730032B0FD033
S2140020F09DF80730042B08D09DF80730052B02D139
S21400210047F6FF730FE000230DE04FF6FF730AE07B
S2140021104FF6FF7307E04FF6FF7304E04FF6FF73CA
S21400212001E04FF6FF73009A134103F00103002B02
S21400213004D14FF482610D48FEF754F89DF807204D
S21400214013465B0013441B010C3303F1804303F575
S21400215008230121009A01FA02F211461846FFF7F9
S214002160A3FF00BF03B05DF804FB00BFCC50000027
S21400217000B585B00346029101928DF80F309DF8A8
S2140021800F30002B18D09DF80F30012B14D09DF87F
S2140021900F30022B10D09DF80F30032B0CD09DF87B
S2140021A00F30042B08D09DF80F30052B04D040F2DA
S2140021B0D4411948FEF716F8029B072B04D940F2C3
S2140021C0D6411548FEF70EF8019B072B04D94FF4AD
S2140021D09B611148FEF706F810499DF80F2013463C
S2140021E05B0013441B010B441B6823F07012029B18
S2140021F01B0142EA0301019B1B0508489DF80F20BE
S214002200194313465B0013441B010344196000BFC7
S21400221005B05DF804FB00BFCC500000008008400D
S21400222000B583B0164B1B6C0193019B03F00203B1
S214002230002B21D0124B02229A6417E0104B196A29
S214002240104B1A68104B1B685B0013440AB21A80C6
S2140022500D4B1B6801330C4A13600C4B1B685A1E4F
S214002260094B1B689A4201D100F0ACF8044B1B697D
S21400227003F02003002BE1D000BF03B05DF804FBA1
S21400228000800240E4100020EC100020E81000203F
S21400229000B585B001AB83E80700304BD3F8B0300B
S2140022A02E4A43F01003C2F8B0302C4BD3F8C0309F
S2140022B02A4A43F48033C2F8C030284BD3F868313A
S2140022C0264A43F08003C2F86831002304220C211A
S2140022D00120FFF70FF9002301220B210120FFF751
S2140022E009F9072207210120FFF742FF08210020F5
S2140022F0FFF7E8FE1A4B03225A65194B03229A652C
S214002300174B40F201121A6500BF154B1B6E002BCF
S214002310FBD1019A124B9A61114B43F203025A61A8
S21400232000BF0F4B1B6E002BFBD1039B1A46029B74
S2140023301B0213430A4A43F000439360084B0122F2
S2140023405A60074B0222DA643B20FFF791FE3B20DF
S214002350FFF774FE00BF05B05DF804FB00400E40BA
S2140023600080024082B001900091104B1B7883F0F1
S2140023700103DBB2002B01D0012314E00C4A019BC1
S21400238013600C4A009B13600B4B00221A6000BFC0
S2140023900A4B1B6E002BFBD1094B01221A70074B10
S2140023A00122DA600023184602B07047F1100020C0
S2140023B0E4100020E8100020EC100020008002400E
S2140023C0F01000200B4B1B7883F00103DBB2002BD0
S2140023D001D001230BE000BF074B1B6E002BFBD187
S2140023E0054B1022DA60054B00221A7000231846AF
S2140023F0704700BFF110002000800240F01000205F
S214002400014B1B7818467047F010002000B585B0C9
S21400241001AB83E8070001AB93E80700FFF738FF3E
S214002420034B01221A7000BF05B05DF804FB00BF25
S214002430F110002082B000B593B00390029115937E
S2140024401346ADF80630159B5B00184602F0AEFC4E
S2140024500D90159B9B00184602F0A8FC0C90159B4F
S2140024605B00184602F0A2FC0B90BDF80620159BF8
S21400247092FBF3F3ADF82A3000238DF84730159B16
S214002480194604A80123002201F05CFD00231093E6
S21400249056E000230F9316E0109A0F9B13445B0040
S2140024A0039A1344B3F900309AB2169B9BB212FB00
S2140024B003F399B20F9B5B000D9A13440AB21A807D
S2140024C00F9B01330F93159B0F9A9A42E4DB04ABE4
S2140024D00C9A0D99184601F0D5FD159B5B001A461F
S2140024E00B990C9801F08EFC189ABDF82A3092FBD6
S2140024F0F3F30E9310E00E9B5B000B9A1344B3F9B4
S21400250000301A46179B9A4203DB01238DF84730AA
S2140025100EE00E9B01330E93199ABDF82A3092FBFB
S214002520F3F30E9A9A4203DC159B0E9A9A42E2DB6C
S2140025309DF84730002B0FD1159B109A134410932B
S214002540159B1A46029BB3FBF2F3159A02FB03F2A5
S214002550109B9A429DD800E000BF9DF84730184671
S21400256013B05DF804EB02B070470000044B1B6923
S214002570034A23F00403136130BF00BF704700BF57
S21400258000ED00E008B5FFF7C3FC034B93E8070037
S214002590FFF73CFF00BF08BD9C100020F0B58BB0D5
S2140025A0314B1B680133304A526802FB03F32F4A53
S2140025B092FBF3F30993099802F04CF94FF00002EE
S2140025C02B4B02F0B1F903460C461846214602F0A2
S2140025D0BDFB03460893089B0221184602F0DEFB6B
S2140025E0079005230693234A04AB92E8030018607D
S2140025F004331970FFF7C6FFFFF7EEFAFFF748FB44
S214002600089B19460798FFF7ADFEFFF7AFFFFFF7E9
S214002610F7FE034683F00103DBB2002BF5D0089EDD
S214002620099B9FB2144C6D46231D0FCB85E80F0007
S21400263023683A4631460798FFF7FCFE0346002B10
S2140026400AD0089B19460798FFF76EFC04AB0521D5
S2140026501846FFF797FC05E0089B19460798FFF712
S21400266081FED2E7C8E700BF9C100020008123014E
S214002670000010403C510000A81000204B1C012B0D
S21400268098BF70472DE9F003911C9B08B1F80480B1
S214002690B1F802900A8831F802CC804481440244A2
S2140026A08444D9F80070D8F800601568DCF800405B
S2140026B0C9F80060C8F80070CCF800501460D9F86B
S2140026C00470D8F804605568DCF80440C9F8046063
S2140026D0C8F80470CCF8045054600831013BD5D1DA
S2140026E0BDE8F00370474B1C012B98BF70472DE9DF
S2140026F0F003911C9B08B1F80480B1F802900A8898
S21400270031F802CC00EB580800EB590900EB5202F6
S21400271000EB5C0CD9F80070D8F800601568DCF89F
S2140027200040C9F80060C8F80070CCF8005014608B
S2140027300831013BDFD1BDE8F003704700B587B034
S2140027400390029111461A460B468DF80730134641
S2140027508DF80630039B1B8805939DF80730012BE8
S21400276033D1059BB3F5807F1ED0B3F5807F0BD8A1
S214002770202B21D0202B02D8102B15D058E0402B30
S21400278012D0802B18D053E0B3F5806F0CD0B3F581
S214002790806F03D8B3F5007F0ED049E0B3F5006F25
S2140027A00AD0B3F5805F43D1039B5A68012305998D
S2140027B0029800F0A3FE3BE0039B5B681A4605996F
S2140027C0029800F02EF900BF32E0059BB3F5807F3B
S2140027D01ED0B3F5807F0BD8202B21D0202B02D81B
S2140027E0102B15D024E0402B12D0802B18D01FE0E1
S2140027F0B3F5806F0CD0B3F5806F03D8B3F5007FC8
S2140028000ED015E0B3F5006F0AD0B3F5805F0FD198
S214002810039B5A6801230599029800F0EBF907E03C
S214002820039B5B681A460599029800F011F800BFF2
S2140028309DF80630002B07D0039B9989039B9B6865
S2140028401A460298FFF74FFF00BF07B05DF804FB7B
S21400285000B5A5B0039002910192019B2293039BC1
S2140028602193029B5B00039A13442093029B5B0810
S2140028701F931F9B239361E0229B1B681C93229B44
S21400288004332293219B1B681B931B9B07930023F7
S2140028900693079B069A93FA22F30593059B1B93D0
S2140028A0209B1B681A931A9B0A93002309930A9B82
S2140028B0099A93FA22F30893089B1A931B9A1A9B79
S2140028C00D920C930D9B0C9AD3FA12F30B930B9B61
S2140028D019931B9A1A9B10920F93109B0F9A93FAB8
S2140028E022F30E930E9B1A46219B1A60219B0433FB
S2140028F021931C9A199B13921293139B129A23FBF3
S21400290002F31193119B1B0C18931C9A199B169299
S2140029101593169B159A43FB12F31493149B179367
S214002920179B1B0C1B04189A92B21A43209B1A6022
S214002930209B04332093239B013B2393239B002B54
S2140029409AD10223019A1F99039800F053F9029B2B
S2140029505B00039AD0180223019A1F9900F04AF9E7
S2140029600023239354E0239BDB00039A13441B8825
S214002970ADF87A30239BDB000233039A13441B889E
S214002980ADF87830239BDB000433039A13441B888E
S214002990ADF87630239BDB000633039A13441B887E
S2140029A0ADF87430BDF97A305B00ADF87A30BDF919
S2140029B078305B00ADF87830BDF976305B00ADF866
S2140029C07630BDF974305B00ADF87430239BDB00C5
S2140029D0039A1344BDF87A201A80239BDB00023347
S2140029E0039A1344BDF878201A80239BDB00043337
S2140029F0039A1344BDF876201A80239BDB00063327
S214002A00039A1344BDF874201A80239B0133239342
S214002A10029B5B08239A9A42A5D300BF25B05DF8B7
S214002A2004FB00B5A5B0039002910192019B22938E
S214002A30039B2193029B5B00039A13442093029B03
S214002A405B081F931F9B239361E0229B1B681C93CC
S214002A50229B04332293219B1B681B931B9B07938B
S214002A6000230693079B069A93FA22F30593059B89
S214002A701B93209B1B681A931A9B0A9300230993A7
S214002A800A9B099A93FA22F30893089B1A931B9AB7
S214002A901A9B0D920C930D9B0C9AD3FA12F30B9380
S214002AA00B9B19931B9A1A9B10920F93109B0F9ACD
S214002AB093FA22F30E930E9B1A46219B1A60219BD3
S214002AC0043321931C9A199B13921293139B129A08
S214002AD043FB02F31193119B1B0C18931C9A199B32
S214002AE016921593169B159A23FB12F31493149BB8
S214002AF01793179B1B0C1B04189A92B21A43209B21
S214002B001A60209B04332093239B013B2393239B33
S214002B10002B9AD10223019A1F99039800F0EEFC2D
S214002B20029B5B00039AD0180223019A1F9900F0BB
S214002B30E5FC0023239354E0239BDB00039A134415
S214002B401B88ADF87A30239BDB000233039A1344CC
S214002B501B88ADF87830239BDB000433039A1344BC
S214002B601B88ADF87630239BDB000633039A1344AC
S214002B701B88ADF87430BDF97A305B00ADF87A305A
S214002B80BDF978305B00ADF87830BDF976305B0083
S214002B90ADF87630BDF974305B00ADF87430239B29
S214002BA0DB00039A1344BDF87A201A80239BDB00CF
S214002BB00233039A1344BDF878201A80239BDB0067
S214002BC00433039A1344BDF876201A80239BDB0057
S214002BD00633039A1344BDF874201A80239B0133EE
S214002BE02393029B5B08239A9A42A5D300BF25B085
S214002BF05DF804FB10B4ADF5337D03AC206002A88D
S214002C00016001A90A606A46136002AB1B68B193B3
S214002C10B19BA893B19B9B08B1930023B093B19B43
S214002C20AE9303AB1B68AC93B19B9B00AC9A13446A
S214002C30AB93B19B9B00AB9A1344AA93B19B9B00AA
S214002C40AA9A1344A993AC9B1B68A793A79A4FAB69
S214002C501A604EAB00221A604FAB1B684EAA126871
S214002C6093FA22F24DAB1A604DAB1B68A793A79A56
S214002C7052AB1A6051AB00221A6052AB1B6851AAC5
S214002C80126893FA22F250AB1A6050AB1B68A793F7
S214002C90AA9B1B68A693A69A55AB1A6054AB002253
S214002CA01A6055AB1B6854AA126893FA22F253AB0B
S214002CB01A6053AB1B68A693A69A58AB1A6057AB1C
S214002CC000221A6058AB1B6857AA126893FA22F2C1
S214002CD056AB1A6056AB1B68A693A799A69A5BAB31
S214002CE019605AAB1A605BAB1B685AAA126893FA53
S214002CF012F259AB1A6059AB1B68A593A799A69A0E
S214002D005EAB19605DAB1A605EAB1B685DAA1268AD
S214002D10D3FA12F25CAB1A605CAB1B68A693AB9B53
S214002D201B68A793A79A61AB1A6060AB00221A6073
S214002D3061AB1B6860AA126893FA22F25FAB1A6056
S214002D405FAB1B68A793A79A64AB1A6063AB0022BD
S214002D501A6064AB1B6863AA126893FA22F262AB2D
S214002D601A6062AB1B68A793A99B1B68A493A49ADE
S214002D7067AB1A6066AB00221A6067AB1B6866AA70
S214002D80126893FA22F265AB1A6065AB1B68A493CF
S214002D90A49A6AAB1A6069AB00221A606AAB1B6819
S214002DA069AA126893FA22F268AB1A6068AB1B68CD
S214002DB0A493A799A49A6DAB19606CAB1A606DAB1F
S214002DC01B686CAA126893FA12F26BAB1A606BABB4
S214002DD01B68A793A599A79A70AB19606FAB1A608A
S214002DE070AB1B686FAA126893FA22F26EAB1A6079
S214002DF06EAB1B681A46AC9B1A60AC9B0433AC9354
S214002E00A59BA79A739372AB1A60739B72AA1268FB
S214002E10D3FA12F271AB1A6071AB1B68A593B09B24
S214002E20DB0001AA126813441B68A393A39AA59B10
S214002E3076927593769B759A23FB02F37493749B34
S214002E401B0CA293A39AA59B79927893799B789A68
S214002E5043FB12F37793779BA193AB9B1B68A793D7
S214002E60A79B7C9300237B937C9B7B9A93FA22F30D
S214002E707A937A9BA793A79B7F9300237E937F9B4F
S214002E807E9A93FA22F37D937D9BA793A19B1B0CBE
S214002E901B04A29A92B21A43AB9B1A60AB9B0433F4
S214002EA0AB93A99B1B68A493A49B82930023819356
S214002EB0829B819A93FA22F38093809BA493A49B8F
S214002EC0859300238493859B849A93FA22F38393B5
S214002ED0839BA493A79AA49B88928793889B879AA0
S214002EE0D3FA12F38693869BA793A69AA79B8B92F8
S214002EF08A938B9B8A9AA3FA12F38993899BA5934C
S214002F00A69AA79B8E928D938E9B8D9AE3FA12F3C8
S214002F108C938C9BA693B09B9B0001AA12681344CB
S214002F201B68A093A09AA69B91929093919B909ACF
S214002F3023FB02F38F938F9B1B0CA293A09AA69B56
S214002F4094929393949B939A43FB12F39293929B3F
S214002F50A193A19B1B0C1B04A29A92B213431A4680
S214002F60AA9B1A60AA9B0433AA93B09A13465B00E6
S214002F7013449B001A4601AB1B6813441B689F93BF
S214002F809F9AA59B97929693979B969A23FB02F3FC
S214002F909593959B1B0CA2939F9AA59B9A929993A7
S214002FA09A9B999A43FB12F39893989BA193A19BA3
S214002FB01B0C1B04A29A92B213431A46A99B1A60D2
S214002FC0A99B0433A9936B46B09A1B681344B0932D
S214002FD0AE9B013BAE93AE9B002B7FF434AE6B46AC
S214002FE06A46126892001A6002AB1B689B08AD9393
S214002FF0A0E1B19BA893B19B9B08B1930023B0932B
S2140030000023AE9388E1B09B9B0001AA126813448C
S2140030101B68A093B09BDB0001AA126813441B68D0
S214003020A393B09A13465B0013449B001A4601AB69
S2140030301B6813441B689F936B46B09A1B68134427
S214003040B093AE9B9B0003AA12681344AC93B19B4B
S2140030509B00AC9A1344AB93B19B9B00AB9A134472
S214003060AA93B19B9B00AA9A1344A993AE9BAF93D5
S21400307049E1AC9B1B68A793AA9B1B68A693A799DC
S214003080A69A22AB196021AB1A6022AB1B6821AA54
S214003090126893FA12F220AB1A6020AB1B68A59355
S2140030A0A799A69A25AB196024AB1A6025AB1B68B6
S2140030B024AA1268D3FA12F223AB1A6023AB1B6859
S2140030C0A693AB9B1B68A793A99B1B68A493A79981
S2140030D0A49A28AB196027AB1A6028AB1B6827AAEE
S2140030E0126893FA12F226AB1A6026AB1B68A793F7
S2140030F0A599A79A2BAB19602AAB1A602BAB1B6855
S2140031002AAA126893FA22F229AB1A6029AB1B6826
S214003110A293A29A2EAB1A602DAB00221A602EAB99
S2140031201B682DAA126893FA22F22CAB1A602CABFD
S2140031301B68A293AC9BA29A1A60A89B9B00AC9AB1
S2140031401344AC93A599A79A31AB196030AB1A60BB
S21400315031AB1B6830AA1268D3FA22F22FAB1A6082
S2140031602FAB1B68A593A399A59A34AB196033AB14
S2140031701A6034AB1B6833AA126823FB02F232AB28
S2140031801A6032AB1B681B0CA293A399A59A37ABA7
S214003190196036AB1A6037AB1B6836AA126843FB59
S2140031A012F235AB1A6035AB1B68A193AB9B1B685C
S2140031B0A793A19B1B0C1B04A29A92B213431A4618
S2140031C0AB9B1A60A89B9B00AB9A1344AB93A99B3E
S2140031D01B68A493A799A49A3AAB196039AB1A60F6
S2140031E03AAB1B6839AA1268D3FA12F238AB1A60E7
S2140031F038AB1B68A793A699A79A3DAB19603CAB62
S2140032001A603DAB1B683CAA1268A3FA22F23BABDD
S2140032101A603BAB1B68A593A699A79A40AB1960AA
S2140032203FAB1A6040AB1B683FAA1268E3FA22F273
S2140032303EAB1A603EAB1B68A693A099A69A43AB1A
S214003240196042AB1A6043AB1B6842AA126823FBA4
S21400325002F241AB1A6041AB1B681B0CA293A0990B
S214003260A69A46AB196045AB1A6046AB1B6845AAE2
S214003270126843FB12F244AB1A6044AB1B68A1937E
S214003280A19B1B0C1B04A29A92B213431A46AA9B3C
S2140032901A60A89B9B00AA9A1344AA939F99A59A82
S2140032A049AB196048AB1A6049AB1B6848AA12685C
S2140032B023FB02F247AB1A6047AB1B681B0CA293BA
S2140032C09F99A59A4CAB19604BAB1A604CAB1B6828
S2140032D04BAA126843FB12F24AAB1A604AAB1B6851
S2140032E0A193A19B1B0C1B04A29A92B213431A46ED
S2140032F0A99B1A60A89B9B00A99A1344A993AF9A0E
S214003300A89B1344AF9302ABAF9A1B689A42FFF494
S214003310B0AEAE9B0133AE93B19B013BAE9A9A42E0
S2140033207FF671AE6B466A46126892001A60AD9BD5
S2140033309B08AD93AD9B042B3FF65BAE02AB1B68C0
S2140033409B08AE9304AB03AA12681A6004AA13681B
S214003350191D11601B689E9304AA1368191D11603D
S2140033601B689D9304AA1368191D11601B689C9323
S21400337004AA1368191D11601B689B939E999C9A5A
S21400338007AB196006AB1A6007AB1B6806AA126883
S21400339093FA12F205AB1A6005AB1B68A5939D99CC
S2140033A09B9A0AAB196009AB1A600AAB1B6809AA9C
S2140033B0126893FA12F208AB1A6008AB1B68A79360
S2140033C004AB1B68A3F1100204AB1A60A599A79A78
S2140033D00DAB19600CAB1A600DAB1B680CAA12681B
S2140033E093FA22F20BAB1A600BAB186804AA1368A8
S2140033F0191D116002461A609D999B9A10AB1960C0
S2140034000FAB1A6010AB1B680FAA126893FA12F281
S2140034100EAB1A600EAB1B68A793A599A79A13ABC1
S214003420196012AB1A6013AB1B6812AA1268D3FAA3
S21400343022F211AB1A6011AB186804AA1368191DA2
S214003440116002461A609E999C9A16AB196015ABDD
S2140034501A6016AB1B6815AA1268D3FA12F214ABE0
S2140034601A6014AB1B68A6939D999B9A19AB1960BA
S21400347018AB1A6019AB1B6818AA1268D3FA12F2B6
S21400348017AB1A6017AB1B68A493A699A49A1CAB3B
S21400349019601BAB1A601CAB1B681BAA1268E3FA08
S2140034A022F21AAB1A601AAB186804AA1368191D20
S2140034B0116002461A60A699A49A1FAB19601EAB4B
S2140034C01A601FAB1B681EAA1268A3FA22F21DAB75
S2140034D01A601DAB186804AA1368191D116002460D
S2140034E01A60AE9B013BAE93AE9B002B7FF42EAFD3
S2140034F000BF0DF5337D5DF8044B704710B4ADF595
S214003500337D03AC206002A8016001A90A606A4608
S214003510136002AB1B68B193B19BA893B19B9B0849
S214003520B1930023B093B19BAE9303AB1B68AC93EF
S214003530B19B9B00AC9A1344AB93B19B9B00AB9A98
S2140035401344AA93B19B9B00AA9A1344A993AC9BDD
S2140035501B68A793A79A4FAB1A604EAB00221A605F
S2140035604FAB1B684EAA126893FA22F24DAB1A6054
S2140035704DAB1B68A793A79A52AB1A6051AB0022BB
S2140035801A6052AB1B6851AA126893FA22F250AB2B
S2140035901A6050AB1B68A793AA9B1B68A693A69AB3
S2140035A055AB1A6054AB00221A6055AB1B6854AA80
S2140035B0126893FA22F253AB1A6053AB1B68A693B9
S2140035C0A69A58AB1A6057AB00221A6058AB1B6815
S2140035D057AA126893FA22F256AB1A6056AB1B68CB
S2140035E0A693A799A69A5BAB19605AAB1A605BAB19
S2140035F01B685AAA126893FA12F259AB1A6059ABB2
S2140036001B68A593A799A69A5EAB19605DAB1A6076
S2140036105EAB1B685DAA1268D3FA12F25CAB1A6046
S2140036205CAB1B68A693AB9B1B68A793A79A61AB82
S2140036301A6060AB00221A6061AB1B6860AA126851
S21400364093FA22F25FAB1A605FAB1B68A793A79A48
S21400365064AB1A6063AB00221A6064AB1B6863AA93
S214003660126893FA22F262AB1A6062AB1B68A793E9
S214003670A99B1B68A493A49A67AB1A6066AB00224A
S2140036801A6067AB1B6866AA126893FA22F265ABEB
S2140036901A6065AB1B68A493A49A6AAB1A6069AB00
S2140036A000221A606AAB1B6869AA126893FA22F2B3
S2140036B068AB1A6068AB1B68A493A799A49A6DAB15
S2140036C019606CAB1A606DAB1B686CAA126893FA33
S2140036D012F26BAB1A606BAB1B68A793A599A79AFF
S2140036E070AB19606FAB1A6070AB1B686FAA12687C
S2140036F093FA22F26EAB1A606EAB1B681A46AC9B4E
S2140037001A60AC9B0433AC93A59BA79A739372ABD9
S2140037101A60739B72AA1268D3FA12F271AB1A601F
S21400372071AB1B68A593B09BDB0001AA126813441B
S2140037301B68A393A39AA59B76927593769B759A1E
S21400374043FB02F37493749B1B0CA293A39AA59B52
S21400375079927893799B789A23FB12F37793779BE9
S214003760A193AB9B1B68A793A79B7C9300237B939B
S2140037707C9B7B9A93FA22F37A937A9BA793A79BD8
S2140037807F9300237E937F9B7E9A93FA22F37D930A
S2140037907D9BA793A19B1B0C1B04A29A92B21A4373
S2140037A0AB9B1A60AB9B0433AB93A99B1B68A4939B
S2140037B0A49B829300238193829B819A93FA22F39F
S2140037C08093809BA493A49B859300238493859BDE
S2140037D0849A93FA22F38393839BA493A79AA49B39
S2140037E088928793889B879AD3FA12F38693869B50
S2140037F0A793A69AA79B8B928A938B9B8A9AE3FAA7
S21400380012F38993899BA593A69AA79B8E928D9374
S2140038108E9B8D9AA3FA12F38C938C9BA693B09BE7
S2140038209B0001AA126813441B68A093A09AA69B4B
S21400383091929093919B909A43FB02F38F938F9B68
S2140038401B0CA293A09AA69B94929393949B939AF4
S21400385023FB12F39293929BA193A19B1B0C1B0438
S214003860A29A92B213431A46AA9B1A60AA9B0433E2
S214003870AA93B09A13465B0013449B001A4601AB0A
S2140038801B6813441B689F939F9AA59B97929693D9
S214003890979B969A43FB02F39593959B1B0CA293DA
S2140038A09F9AA59B9A9299939A9B999A23FB12F3B7
S2140038B09893989BA193A19B1B0C1B04A29A92B26F
S2140038C013431A46A99B1A60A99B0433A9936B4617
S2140038D0B09A1B681344B093AE9B013BAE93AE9B6D
S2140038E0002B7FF434AE6B466A46126892001A606C
S2140038F002AB1B689B08AD93A0E1B19BA893B19B5C
S2140039009B08B1930023B0930023AE9388E1B09B4D
S2140039109B0001AA126813441B68A093B09BDB00AF
S21400392001AA126813441B68A393B09A13465B005F
S21400393013449B001A4601AB1B6813441B689F93F5
S2140039406B46B09A1B681344B093AE9B9B0003AAC9
S21400395012681344AC93B19B9B00AC9A1344AB9390
S214003960B19B9B00AB9A1344AA93B19B9B00AA9A67
S2140039701344A993AE9BAF9349E1AC9B1B68A793F6
S214003980AA9B1B68A693A799A69A22AB196021AB9F
S2140039901A6022AB1B6821AA126893FA12F220ABB7
S2140039A01A6020AB1B68A593A799A69A25AB196049
S2140039B024AB1A6025AB1B6824AA1268D3FA12F24D
S2140039C023AB1A6023AB1B68A693AB9B1B68A7931D
S2140039D0A99B1B68A493A799A49A28AB196027AB48
S2140039E01A6028AB1B6827AA126893FA12F226AB55
S2140039F01A6026AB1B68A793A599A79A2BAB1960EC
S214003A002AAB1A602BAB1B682AAA126893FA22F21A
S214003A1029AB1A6029AB1B68A293A29A2EAB1A6038
S214003A202DAB00221A602EAB1B682DAA126893FAE3
S214003A3022F22CAB1A602CAB1B68A293AC9BA29A0A
S214003A401A60A89B9B00AC9A1344AC93A599A79ABE
S214003A5031AB196030AB1A6031AB1B6830AA126804
S214003A60D3FA22F22FAB1A602FAB1B68A593A3994B
S214003A70A59A34AB196033AB1A6034AB1B6833AA13
S214003A80126843FB02F232AB1A6032AB1B681B0CA7
S214003A90A293A399A59A37AB196036AB1A6037ABD9
S214003AA01B6836AA126823FB12F235AB1A6035ABD8
S214003AB01B68A193AB9B1B68A793A19B1B0C1B04C5
S214003AC0A29A92B213431A46AB9B1A60A89B9B001D
S214003AD0AB9A1344AB93A99B1B68A493A799A49A8B
S214003AE03AAB196039AB1A603AAB1B6839AA126850
S214003AF0D3FA12F238AB1A6038AB1B68A793A699B4
S214003B00A79A3DAB19603CAB1A603DAB1B683CAA5C
S214003B101268E3FA22F23BAB1A603BAB1B68A59334
S214003B20A699A79A40AB19603FAB1A6040AB1B68DA
S214003B303FAA1268A3FA22F23EAB1A603EAB1B689D
S214003B40A693A099A69A43AB196042AB1A6043AB02
S214003B501B6842AA126843FB02F241AB1A6041ABF3
S214003B601B681B0CA293A099A69A46AB196045AB9E
S214003B701A6046AB1B6845AA126823FB12F244ABD8
S214003B801A6044AB1B68A193A19B1B0C1B04A29A52
S214003B9092B213431A46AA9B1A60A89B9B00AA9A45
S214003BA01344AA939F99A59A49AB196048AB1A602B
S214003BB049AB1B6848AA126843FB02F247AB1A607F
S214003BC047AB1B681B0CA2939F99A59A4CAB196038
S214003BD04BAB1A604CAB1B684BAA126823FB12F265
S214003BE04AAB1A604AAB1B68A193A19B1B0C1B0433
S214003BF0A29A92B213431A46A99B1A60A89B9B00EE
S214003C00A99A1344A993AF9AA89B1344AF9302AB07
S214003C10AF9A1B689A42FFF4B0AEAE9B0133AE93E8
S214003C20B19B013BAE9A9A427FF671AE6B466A46EE
S214003C30126892001A60AD9B9B08AD93AD9B042B57
S214003C403FF65BAE02AB1B689B08AE9304AB03AAC1
S214003C5012681A6004AA1368191D11601B689E93E7
S214003C6004AA1368191D11601B689D9304AA1368A3
S214003C70191D11601B689C9304AA1368191D116016
S214003C801B689B939E999C9A07AB196006AB1A60BB
S214003C9007AB1B6806AA126893FA12F205AB1A6005
S214003CA005AB1B68A5939D999B9A0AAB196009AB57
S214003CB01A600AAB1B6809AA126893FA12F208ABDC
S214003CC01A6008AB1B68A79304AB1B68A3F110022D
S214003CD004AB1A60A599A79A0DAB19600CAB1A60D5
S214003CE00DAB1B680CAA126893FA22F20BAB1A6093
S214003CF00BAB186804AA1368191D116002461A60F7
S214003D009D999B9A10AB19600FAB1A6010AB1B689D
S214003D100FAA126893FA12F20EAB1A600EAB1B686B
S214003D20A793A599A79A13AB196012AB1A6013ABA9
S214003D301B6812AA1268D3FA22F211AB1A6011ABF2
S214003D40186804AA1368191D116002461A609E9925
S214003D509C9A16AB196015AB1A6016AB1B6815AAB1
S214003D601268D3FA12F214AB1A6014AB1B68A6934F
S214003D709D999B9A19AB196018AB1A6019AB1B6812
S214003D8018AA1268D3FA12F217AB1A6017AB1B68A0
S214003D90A493A699A49A1CAB19601BAB1A601CAB23
S214003DA01B681BAA1268A3FA22F21AAB1A601AAB97
S214003DB0186804AA1368191D116002461A60A699AD
S214003DC0A49A1FAB19601EAB1A601FAB1B681EAA15
S214003DD01268E3FA22F21DAB1A601DAB186804AA3B
S214003DE01368191D116002461A60AE9B013BAE9324
S214003DF0AE9B002B7FF42EAF00BF0DF5337D5DF834
S214003E00044B704700B59DB0039002910192019B50
S214003E109B081B936AE003AA1368191D11601B68B0
S214003E201A9303AA1368191D11601B68189303AA36
S214003E301368191D11601B68179303AA1368191DD0
S214003E4011601B6816931A9A1A9B09920893099B8D
S214003E50089A23FB02F30793079B1993189A189B5B
S214003E600C920B930C9B0B9A23FB02F30A930A9B70
S214003E701593179A179B0F920E930F9B0E9A23FB80
S214003E8002F30D930D9B1493169A169B12921193A0
S214003E90129B119A23FB02F31093109B1393199B0A
S214003EA05B1418B2029B9A1C0292194600F094FA10
S214003EB0159B5B1418B2029B9A1C0292194600F0DE
S214003EC08BFA149B5B1418B2029B9A1C029219463A
S214003ED000F082FA139B5B1418B2029B9A1C0292A3
S214003EE0194600F079FA1B9B013B1B931B9B002B8A
S214003EF091D1019B03F003031B931CE003AA1368F4
S214003F00191D11601B681A931A9A1A9B069205933C
S214003F10069B059A23FB02F30493049B1993199BB3
S214003F205B1418B2029B9A1C0292194600F054FACF
S214003F301B9B013B1B931B9B002BDFD100BF1DB0BF
S214003F405DF804FB86B00390029101920093002373
S214003F508DF81730029B9BB21A46039B1A60039B90
S214003F603D4ADA60039B3D4A1A61019BDAB2039B25
S214003F701A71009BDAB2039B5A71039B1B68B3F558
S214003F80007F3BD0B3F5007F0CD8402B4BD0402BA6
S214003F9002D8202B4ED055E0802B3DD0B3F5807F45
S214003FA033D04FE0B3F5006F1AD0B3F5006F03D8E7
S214003FB0B3F5806F1BD045E0B3F5805F09D0B3F54D
S214003FC0005F3FD1039B01229A60039B244A5A61FB
S214003FD03CE0039B02229A60039B224A5A6135E02A
S214003FE0039B04229A60039B1F4A5A612EE0039BA0
S214003FF008229A60039B1D4A5A6127E0039B102201
S2140040009A60039B1A4A5A6120E0039B20229A601A
S214004010039B184A5A6119E0039B40229A60039B4F
S214004020154A5A6112E0039B80229A60039B134A4A
S2140040305A610BE0039B4FF480729A60039B104A10
S2140040405A6103E0FF238DF8173000BF9DF9173043
S214004050184606B0704700BF9CEF00009C2F01007A
S2140040608CEF00007CEF00006CEF00005CEF0000BF
S2140040704CEF00003CEF00002CEF00001CEF0000AF
S2140040800CEF000000B58BB0059004910392059BE1
S2140040905B690893059B1B685B080793059B1B7968
S2140040A0012B2ED1059BDA68059B1969059B9B6839
S2140040B00193039B00930B460799049800F009F9B7
S2140040C0059B1A79059B5B7903990898FEF736FBE2
S2140040D0002309930FE0099B5B00039A1344B3F98E
S2140040E000305900099B5B00039A13440AB21A80F9
S2140040F0099B01330993059B1B68099A9A42EAD3E8
S21400410015E0059B1A79059B5B7904990898FEF7DC
S21400411015FB059BDA68059B1969059B9B6801934F
S214004120039B00930B460799049800F004F800BF21
S2140041300BB05DF804FB9CB00390029101920093D3
S2140041401D9B9B00019A134408931D9B9B00009A9D
S21400415013440793039B04330693029B03F18043A7
S214004160013B9B00039A1344059301231B931C9B5E
S21400417004331A93029BDB00043B1C9A13441993E6
S214004180029B013B1B9376E006AB1B681B681A4636
S21400419008AB1B681B680B920A930B9B0A9A43FB9F
S2140041A002F30993099B189305AB1B681B68194615
S2140041B007AB1B681B681A46189B0F910E920D934F
S2140041C00F9B0E9A0D9923FB02130C930C9B1B0C52
S2140041D0189305AA1368191F11601B681A4607ABC7
S2140041E01B681B6812921193129B119A43FB12F3E1
S2140041F01093109B179306AA1368191D11601B686D
S214004200194608AB1B681B681A46179B1691159231
S2140042101493169B159A149923FB12131393139B4E
S21400422017931A9B9A1C1A92189A12B21A80179B06
S21400423019141A9B9A1C1A920AB21A80189B1AB260
S214004240199B1A80179B1B149BB25B429AB2199B50
S214004250023312B21A80199B043B1993079A1D9BCE
S2140042609B0013440793089A1D9B9B0013440893D6
S2140042701B9B013B1B931B9B002B85D1039BB3F918
S21400428000301A46039B0233B3F90030D31A591094
S214004290029B9B001C9A13440AB21A80029B9B0046
S2140042A002331C9A134400221A80039BB3F9003091
S2140042B01A46039B0233B3F9003013445B101AB25C
S2140042C01C9B1A801C9B023300221A8000BF1CB065
S2140042D070479AB003900291019200931A9B049340
S2140042E0019B0893009B0793039B0693029B9B00EE
S2140042F0039A13440593029B199367E005AB1B686A
S2140043001B681A4607AB1B681B680B920A930B9B2D
S2140043100A9A43FB02F30993099B189306AB1B68A2
S2140043201B68194608AB1B681B681A46189B0F913A
S2140043300E920D930F9B0E9A0D9923FB02130C936E
S2140043400C9B1B0C189305AA1368191F11601B6899
S2140043501A4607AB1B681B6812921193129B119AA0
S21400436023FB12F31093109B179308AB1B681B6874
S214004370184606AA1368191D11601B681A46179B73
S2140043805B42169015921493169B159A149943FB4C
S21400439012131393139B1793189B9AB2179B1B1415
S2140043A01B0442EA030004AA1368191D11600246A2
S2140043B01A60079A1B9B9B0013440793089A1B9B43
S2140043C09B0013440893199B013B1993199B002BE0
S2140043D094D100BF1AB0704788B003460091ADF87C
S2140043E00630BDF80630ADF81E30BDF91E30002B85
S2140043F040F3D080BDF91E30B3FA83F3DBB29BB234
S214004400113B9BB2ADF81A30BDF81A3003F0010329
S2140044109BB2002B08D1BDF91E20BDF91A3002FA56
S21400442003F3ADF81E3008E0BDF91E20BDF91A30C2
S214004430013B02FA03F3ADF81E30BDF91E305B10E7
S214004440ADF81830BDF81E30ADF81630BDF91E3088
S21400445007EE903AF8EEE77A9FED527A67EE877AA3
S214004460CDED047A049B0293029B0393039B5A10A0
S2140044704D4B9B1A0393039B0293029B0493DDED23
S214004480047A9FED4A7A67EE877AFDEEE77A17EEB2
S214004490903AADF81C30BDF91C30BDF91C20BDF9B2
S2140044A01C1001FB02F2D21312B21146BDF91820FD
S2140044B002FB01F2D21312B2C2F5405202FB03F322
S2140044C0DB131BB29B00ADF81C30BDF91C30BDF9E8
S2140044D01C20BDF91C1001FB02F2D21312B21146C9
S2140044E0BDF9182002FB01F2D21312B2C2F54052F7
S2140044F002FB03F3DB131BB29B00ADF81C30BDF9C7
S2140045001C30BDF91C20BDF91C1001FB02F2D213B1
S21400451012B21146BDF9182002FB01F2D21312B2F4
S214004520C2F5405202FB03F3DB131BB29B00ADF84F
S2140045301C30BDF91630BDF91C2002FB03F3DB135B
S2140045401BB25B00ADF81C30BDF81A3003F0010357
S2140045509BB2002B0CD1BDF91C20BDF91A30D90F27
S2140045600B445B101BB242FA03F3ADF81C300BE0B1
S214004570BDF91C20BDF91A30013BD90F0B445B1066
S21400458042FA03F3ADF81C30009BBDF81C201A80DD
S214004590002304E0009B00221A804FF0FF331846E9
S2140045A008B0704700000038DF59375F00008046CB
S2140045B081F0004102E000BF83F0004330B54FEACF
S2140045C041044FEA430594EA050F08BF90EA020F3C
S2140045D01FBF54EA000C55EA020C7FEA645C7FEACF
S2140045E0655C00F0E2804FEA5454D4EB5555B8BFF2
S2140045F06D420CDD2C4480EA020281EA030382EA63
S214004600000083EA010180EA020281EA0303362DF4
S21400461088BF30BD11F0004F4FEA01314FF4801CC7
S2140046204CEA113102D0404261EB410113F0004FD9
S2140046304FEA03334CEA133302D0524263EB430390
S21400464094EA050F00F0A780A4F10104D5F1200E2E
S2140046500DDB02FA0EFC22FA05F2801841F1000189
S21400466003FA0EF2801843FA05F359410EE0A5F15D
S21400467020050EF1200E012A03FA0EFC28BF4CF08E
S214004680020C43FA05F3C01851EBE37101F0004544
S21400469007D54FF0000EDCF1000C7EEB00006EEB51
S2140046A00101B1F5801F1BD3B1F5001F0CD34908DB
S2140046B05FEA30004FEA3C0C04F101044FEA445232
S2140046C012F5800F80F09A80BCF1004F08BF5FEAB9
S2140046D0500C50F1000041EB045141EA050130BD99
S2140046E05FEA4C0C404141EB010111F4801FA4F13C
S2140046F00104E9D191F0000F04BF01460020B1FA91
S21400470081F308BF2033A3F10B03B3F120020CDAC8
S2140047100C3208DD02F1140CC2F10C0201FA0CF0A6
S21400472021FA02F10CE002F11402D8BFC2F1200C0B
S21400473001FA02F120FA0CFCDCBF41EA0C019040C1
S214004740E41AA2BF01EB0451294330BD6FEA04040A
S2140047501F3C1CDA0C340EDC04F11404C4F12002F5
S21400476020FA04F001FA02F340EA030021FA04F307
S21400477045EA030130BDC4F10C04C4F1200220FA5E
S21400478002F001FA04F340EA0300294630BD21FA9C
S21400479004F0294630BD94F0000F83F4801306BF62
S2140047A081F480110134013D4EE77FEA645C18BF56
S2140047B07FEA655C29D094EA050F08BF90EA020FED
S2140047C005D054EA000C04BF1946104630BD91EAE5
S2140047D0030F1EBF0021002030BD5FEA545C05D1E8
S2140047E04000494128BF41F0004130BD14F5800427
S2140047F03CBF01F5801130BD01F0004545F0FE419B
S21400480041F470014FF0000030BD7FEA645C1ABFCF
S214004810194610467FEA655C1CBF0B46024650EA06
S214004820013406BF52EA033591EA030F41F4002132
S21400483030BD00BF90F0000F04BF0021704730B5B8
S2140048404FF4806404F132044FF000054FF000018D
S21400485050E700BF90F0000F04BF0021704730B54E
S2140048604FF4806404F1320410F0004548BF404223
S2140048704FF000013EE700BF42004FEAE2014FEA78
S21400488031014FEA02701FBF12F07F4393F07F4F53
S21400489081F06051704732F07F4208BF704793F056
S2140048A07F4F04BF41F40021704730B54FF4607469
S2140048B001F0004521F000411CE700BF50EA01026C
S2140048C008BF704730B54FF000050AE050EA010215
S2140048D008BF704730B511F0004502D5404261EB85
S2140048E041014FF4806404F132045FEA915C3FF4C6
S2140048F0D8AE4FF003025FEADC0C18BF03325FEA63
S214004900DC0C18BF033202EBDC02C2F1200300FA13
S21400491003FC20FA02F001FA03FE40EA0E0021FA38
S21400492002F11444BDE600BF70B54FF0FF0C4CF426
S214004930E06C1CEA11541DBF1CEA135594EA0C0FD8
S21400494095EA0C0F00F0DEF82C4481EA030621EA13
S2140049504C5123EA4C5350EA013518BF52EA03354E
S21400496041F4801143F4801338D0A0FB02CE4FF000
S2140049700005E1FB02E506F00042E0FB03E54FF030
S2140049800006E1FB03569CF0000F18BF4EF0010E28
S214004990A4F1FF04B6F5007F64F5407404D25FEA24
S2140049A04E0E6D4146EB060642EAC62141EA5551D7
S2140049B04FEAC52040EA5E504FEACE2EB4F1FD0C19
S2140049C088BFBCF5E06F1ED8BEF1004F08BF5FEA97
S2140049D0500E50F1000041EB045170BD06F0004649
S2140049E046EA010140EA020081EA0301B4EB5C04F6
S2140049F0C2BFD4EB0C0541EA045170BD41F48011EE
S214004A004FF0000E013C00F3AB8014F1360FDEBF12
S214004A10002001F0004170BDC4F10004203C35DAEE
S214004A200C341BDC04F11404C4F1200500FA05F371
S214004A3020FA04F001FA05F240EA020001F0004212
S214004A4021F0004110EBD37021FA04F642EB060188
S214004A505EEA430E08BF20EAD37070BDC4F10C04B2
S214004A60C4F1200500FA04F320FA05F001FA04F276
S214004A7040EA020001F0004110EBD37041F1000162
S214004A805EEA430E08BF20EAD37070BDC4F120056D
S214004A9000FA05F24EEA020E20FA04F301FA05F2D5
S214004AA043EA020321FA04F001F0004121FA04F27D
S214004AB020EA020000EBD3705EEA430E08BF20EA4D
S214004AC0D37070BD94F0000F0FD101F00046400087
S214004AD041EB010111F4801F08BF013CF7D041EA09
S214004AE0060195F0000F18BF704703F0004652000D
S214004AF043EB030313F4801F08BF013DF7D043EADE
S214004B000603704794EA0C0F0CEA135518BF95EA93
S214004B100C0F0CD050EA410618BF52EA4306D1D11A
S214004B2081EA030101F000414FF0000070BD50EA39
S214004B30410606BF1046194652EA430619D094EAC3
S214004B400C0F02D150EA013613D195EA0C0F05D1AD
S214004B5052EA03361CBF104619460AD181EA030101
S214004B6001F0004141F0FE4141F470014FF00000B9
S214004B7070BD41F0FE4141F4780170BD70B54FF054
S214004B80FF0C4CF4E06C1CEA11541DBF1CEA1355D4
S214004B9094EA0C0F95EA0C0F00F0A7F8A4EB0504B6
S214004BA081EA030E52EA03354FEA013100F08880AD
S214004BB04FEA03334FF0805545EA131343EA126376
S214004BC04FEA022245EA111545EA10654FEA00262B
S214004BD00EF000419D4208BF964244F1FD0404F5E4
S214004BE0407402D25B084FEA3202B61A65EB030540
S214004BF05B084FEA32024FF480104FF4002CB6EBFD
S214004C00020E75EB030E22BFB61A754640EA0C007C
S214004C105B084FEA3202B6EB020E75EB030E22BFBC
S214004C20B61A754640EA5C005B084FEA3202B6EBFD
S214004C30020E75EB030E22BFB61A754640EA9C00BC
S214004C405B084FEA3202B6EB020E75EB030E22BF8C
S214004C50B61A754640EADC0055EA060E18D04FEA4A
S214004C60051545EA16754FEA06164FEAC30343EAEA
S214004C7052734FEAC2025FEA1C1CC0D111F4801FB7
S214004C800BD141EA00014FF000004FF0004CB6E7B0
S214004C9011F4801F04BF01430020B4F1FD0C88BF4F
S214004CA0BCF5E06F3FF6AFAEB5EB030C04BFB6EB5A
S214004CB0020C5FEA500C50F1000041EB045170BD4D
S214004CC00EF0004E4EEA113114EB5C04C2BFD4EB7A
S214004CD00C0541EA045170BD41F480114FF0000EFE
S214004CE0013C90E645EA060E8DE60CEA135594EA7A
S214004CF00C0F08BF95EA0C0F3FF43BAF94EA0C0F7D
S214004D000AD150EA01347FF434AF95EA0C0F7FF4F1
S214004D1025AF104619462CE795EA0C0F06D152EA45
S214004D2003353FF4FDAE1046194622E750EA410629
S214004D3018BF52EA43067FF4C5AE50EA41047FF43A
S214004D400DAF52EA43057FF4EBAE12E74FEA41029D
S214004D5012F5001215D211D56FF47873B3EB6252C8
S214004D6012D94FEAC12343F0004343EA505311F0EF
S214004D70004F23FA02F018BF404270474FF0000081
S214004D80704750EA013005D111F0004008BF6FF0BF
S214004D90004070474FF00000704700BF024B0A46C5
S214004DA00146186800F00AB838100020024B014689
S214004DB0186800F011B800BF3810002038B502FBA4
S214004DC001F4214600F008F8054618B122460021F5
S214004DD0FDF746F8284638BD70B5CD1C25F003050E
S214004DE008350C2D38BF0C25002D064601DBA942E0
S214004DF003D90C233360002070BD00F057F8214A19
S214004E001468214691B9204C23681BB9304600F03F
S214004E103DF820602946304600F038F8431C24D17F
S214004E200C233360304600F042F8E4E70B685B1B67
S214004E3018D40B2B0FD90B60CD50CC18304600F091
S214004E4036F804F10B00231D20F00700C31AD3D058
S214004E505A42E250D0E78C424B6816BF636013603C
S214004E600C46EBE70C464968CCE7C41C24F0030468
S214004E70A04205D0211A304600F008F80130CFD005
S214004E802560DBE7F4100020F810002038B5064C4B
S214004E900023054608462360FCF7BAFD431C02D1F2
S214004EA0236803B12B6038BDFC10002070477047A4
S214004EB0F8B500BFF8BC08BC9E467047F8B500BF02
S214004EC0F8BC08BC9E4670472F55736572732F6BEF
S214004ED06576696E696D6C61792F446576656C6F71
S214004EE07065722F43617073746F6E652F426956DA
S214004EF06F2D4261636B656E642F4269566F5F4526
S214004F004D463332474731322F6765636B6F5F73A9
S214004F10646B5F332E312E312F706C6174666F7246
S214004F206D2F656D6C69622F696E632F656D5F63AB
S214004F306F6D6D6F6E2E68002F55736572732F6BD5
S214004F406576696E696D6C61792F446576656C6F00
S214004F507065722F43617073746F6E652F42695669
S214004F606F2D4261636B656E642F4269566F5F45B5
S214004F704D463332474731322F6765636B6F5F7339
S214004F80646B5F332E312E312F706C6174666F72D6
S214004F906D2F656D6C69622F696E632F656D5F633B
S214004FA06D752E68000000002E2E2F6765636B6FF0
S214004FB05F73646B5F332E312E312F706C617466B5
S214004FC06F726D2F656D6C69622F7372632F656DDE
S214004FD05F636D752E6300002F55736572732F6BBC
S214004FE06576696E696D6C61792F446576656C6F60
S214004FF07065722F43617073746F6E652F426956C9
S2140050006F2D4261636B656E642F4269566F5F4514
S2140050104D463332474731322F6765636B6F5F7398
S214005020646B5F332E312E312F706C6174666F7235
S2140050306D2F656D6C69622F696E632F656D5F6796
S21400504070696F2E680000002E2E2F6765636B6FE9
S2140050505F73646B5F332E312E312F706C61746614
S2140050606F726D2F656D6C69622F7372632F656D3D
S2140050705F6770696F2E63002E2E2F6765636B6FF8
S2140050805F73646B5F332E312E312F706C617466E4
S2140050906F726D2F656D6C69622F7372632F656D0D
S2140050A05F75736172742E63000000003C10002070
S2140050B0050000000000000000C20100000500001E
S2140050C00010000000000000000000002F5573656F
S2140050D072732F6B6576696E696D6C61792F4465A6
S2140050E076656C6F7065722F43617073746F6E6552
S2140050F02F4269566F2D4261636B656E642F42695D
S214005100566F5F454D463332474731322F676563EA
S2140051106B6F5F73646B5F332E312E312F706C6153
S21400512074666F726D2F656D6C69622F696E632F82
S214005130656D5F6770696F2E680000002D656E6490
S2140051402D000000FF7F00004176FB30825A825A15
S214005150FB3041760000FF7F04CF41767DA5825A62
S214005160BE89FB3000800000BE8904CF7DA57DA5EA
S21400517004CFBE89FF7F00008A7DF8184176FB3099
S2140051806D6A1C47825A825A1C476D6AFB3041760C
S214005190F8188A7D0000FF7F07E78A7D04CF4176F6
S2140051A0E3B86D6A7DA5825A92951C47BE89FB308E
S2140051B07582F81800800000758207E7BE8904CF64
S2140051C09295E3B87DA57DA5E3B8929504CFBE89F8
S2140051D007E77582FF7F0000627F8B0C8A7DF818D8
S2140051E07D7A28254176FB30E270563C6D6A1C4776
S2140051F0F2623351825A825A3351F2621C476D6A08
S214005200563CE270FB30417628257D7AF8188A7D78
S2140052108B0C627F0000FF7F74F3627F07E78A7D56
S214005220D7DA7D7A04CF4176A9C3E270E3B86D6A17
S214005230CCAEF2627DA5825A0D9D335192951C47E5
S2140052401D8F563CBE89FB30828528257582F8184E
S2140052509D808B0C008000009D8074F3758207E7AC
S2140052608285D7DABE8904CF1D8FA9C39295E3B88D
S2140052700D9DCCAE7DA57DA5CCAE0D9DE3B89295DB
S214005280A9C31D8F04CFBE89D7DA828507E775824A
S21400529074F39D80FF7F0000D87F4706627F8B0CEB
S2140052A09D7EC8128A7DF818297C191F7D7A2825CC
S2140052B084781F2B4176FB30B573BA36E270563CC5
S2140052C0CA6DCE416D6A1C47CF663F4CF2623351C1
S2140052D0D75EF555825A825AF555D75E3351F2623B
S2140052E03F4CCF661C476D6ACE41CA6D563CE27095
S2140052F0BA36B573FB3041761F2B847828257D7A25
S214005300191F297CF8188A7DC8129D7E8B0C627F37
S2140053104706D87F0000FF7FB8F9D87F74F3627F16
S21400532037ED9D7E07E78A7DE6E0297CD7DA7D7A31
S214005330E0D4847804CF417645C9B573A9C3E2703A
S21400534031BECA6DE3B86D6AC0B3CF66CCAEF2624A
S2140053500AAAD75E7DA5825A28A1F5550D9D335120
S21400536030993F4C92951C473592CE411D8F563C46
S2140053704A8CBA36BE89FB307B871F2B8285282550
S214005380D683191F7582F8186281C8129D808B0C0F
S21400539027804706008000002780B8F99D8074F3B8
S2140053A0628137ED758207E7D683E6E08285D7DA35
S2140053B07B87E0D4BE8904CF4A8C45C91D8FA9C31C
S2140053C0359231BE9295E3B83099C0B30D9DCCAE00
S2140053D028A10AAA7DA57DA50AAA28A1CCAE0D9D66
S2140053E0C0B33099E3B8929531BE3592A9C31D8FEC
S2140053F045C94A8C04CFBE89E0D47B87D7DA82853C
S214005400E6E0D68307E7758237ED628174F39D8008
S214005410B8F92780FF7F0000F67F2403D87F470671
S214005420A77F6A09627F8B0C097FAB0F9D7EC8122F
S2140054301D7EE2158A7DF818E37C0B1C297C191F5B
S2140054405D7B23227D7A28258A79262884781F2B5F
S2140054506C77112E4176FB300475DE33B573BA36A1
S21400546055728C39E270563C5F6F173FCA6DCE415D
S214005470246C7A446D6A1C47A668B449CF663F4CD4
S214005480E864BF4EF2623351EC609B53D75EF5552D
S214005490B45C4258825A825A4258B45CF555D75E7C
S2140054A09B53EC603351F262BF4EE8643F4CCF66CC
S2140054B0B449A6681C476D6A7A44246CCE41CA6D0E
S2140054C0173F5F6F563CE2708C395572BA36B5732B
S2140054D0DE330475FB304176112E6C771F2B8478F3
S2140054E026288A7928257D7A23225D7B191F297C28
S2140054F00B1CE37CF8188A7DE2151D7EC8129D7E83
S214005500AB0F097F8B0C627F6A09A77F4706D87F9F
S2140055102403F67F0000FF7FDBFCF67FB8F9D87F18
S21400552095F6A77F74F3627F54F0097F37ED9D7E72
S2140055301DEA1D7E07E78A7DF4E3E37CE6E0297C2E
S214005540DCDD5D7BD7DA7D7AD9D78A79E0D48478BA
S214005550EED16C7704CF417621CC047545C9B5737E
S21400556073C65572A9C3E270E8C05F6F31BECA6DDC
S21400557085BB246CE3B86D6A4BB6A668C0B3CF662D
S21400558040B1E864CCAEF26264ACEC600AAAD75EC6
S214005590BDA7B45C7DA5825A4BA3425828A1F555F9
S2140055A0139F9B530D9D3351179BBF4E30993F4C15
S2140055B05997B44992951C47DB937A443592CE416D
S2140055C0A090173F1D8F563CAA8D8C394A8CBA3650
S2140055D0FB8ADE33BE89FB309388112E7B871F2B18
S2140055E07586262882852825A2842322D683191F1D
S2140055F01C830B1C7582F818E281E2156281C812C2
S214005600F680AB0F9D808B0C58806A092780470672
S21400561009802403008000000980DBFC2780B8F99D
S214005620588095F69D8074F3F68054F0628137EDCD
S214005630E2811DEA758207E71C83F4E3D683E6E081
S214005640A284DCDD8285D7DA7586D9D77B87E0D45D
S2140056509388EED1BE8904CFFB8A21CC4A8C45C9FB
S214005660AA8D73C61D8FA9C3A090E8C0359231BE1F
S214005670DB9385BB9295E3B859974BB63099C0B388
S214005680179B40B10D9DCCAE139F64AC28A10AAA0F
S2140056904BA3BDA77DA57DA5BDA74BA30AAA28A1A0
S2140056A064AC139FCCAE0D9D40B1179BC0B3309930
S2140056B04BB65997E3B8929585BBDB9331BE3592CE
S2140056C0E8C0A090A9C31D8F73C6AA8D45C94A8C91
S2140056D021CCFB8A04CFBE89EED19388E0D47B87A9
S2140056E0D9D77586D7DA8285DCDDA284E6E0D68354
S2140056F0F4E31C8307E775821DEAE28137ED6281D9
S21400570054F0F68074F39D8095F65880B8F927809B
S214005710DBFC0980FF7F0000FD7F9201F67F2403FB
S214005720E97FB604D87F4706C27FD907A77F6A09F4
S214005730877FFB0A627F8B0C387F1B0E097FAB0FBF
S214005740D57E39119D7EC8125F7E55141D7EE215EA
S214005750D67D6D178A7DF818397D821AE37C0B1C7E
S214005760897C931D297C191FC57B9F205D7B232286
S214005770EF7AA6237D7A2825057AA8268A79262810
S2140057800979A32984781F2BFA77982C6C77112E29
S214005790D976872F4176FB30A5756E320475DE33D9
S2140057A05F744D35B573BA360773243855728C3925
S2140057B09E71F23AE270563C2370B83D5F6F173F19
S2140057C0966E7340CA6DCE41F96C2543246C7A44BC
S2140057D04A6BCD456D6A1C478C696948A668B44912
S2140057E0BD67FB4ACF663F4CDD65814DE864BF4E22
S2140057F0EF63FB4FF2623351F1616952EC609B53E9
S214005800E35FCA54D75EF555C75D1D57B45C425872
S2140058109D5B6459825A825A64599D5B4258B45CB7
S2140058201D57C75DF555D75ECA54E35F9B53EC60C2
S2140058306952F1613351F262FB4FEF63BF4EE86489
S214005840814DDD653F4CCF66FB4ABD67B449A6680F
S21400585069488C691C476D6ACD454A6B7A44246C4E
S2140058602543F96CCE41CA6D7340966E173F5F6F45
S214005870B83D2370563CE270F23A9E718C395572F0
S21400588024380773BA36B5734D355F74DE33047546
S2140058906E32A575FB304176872FD976112E6C7740
S2140058A0982CFA771F2B8478A329097926288A79D9
S2140058B0A826057A28257D7AA623EF7A23225D7B03
S2140058C09F20C57B191F297C931D897C0B1CE37CBC
